:020000040800F2
:1000000048380120E5350008C1350008C33500082F
:10001000C5350008C7350008C935000800000000D4
:10002000000000000000000000000000CB350008C8
:10003000CD35000800000000CF350008D13500089C
:10004000FD350008013600080536000809360008AD
:100050000D3600081136000815360008193600085C
:100060001D3600082136000825360008293600080C
:100070002D360008313600083536000839360008BC
:100080003D3600084136000845360008493600086C
:100090004D3600085136000855360008593600081C
:1000A0005D360008613600086536000869360008CC
:1000B0006D3600087136000875360008793600087C
:1000C0007D3600088136000885360008893600082C
:1000D0008D360008913600089536000899360008DC
:1000E0009D360008A1360008A5360008A93600088C
:1000F000AD360008B1360008B5360008B93600083C
:10010000BD360008C1360008C5360008C9360008EB
:10011000CD360008D1360008D5360008D93600089B
:10012000DD360008E1360008E5360008E93600084B
:10013000ED360008F1360008F5360008F9360008FB
:10014000FD360008013700080537000809370008A8
:100150000D37000811370008153700081937000857
:100160001D37000821370008253700082937000807
:100170002D370008313700080000000000000000A3
:1001800035370008393700082DE9FC47050066D0EF
:10019000DFF8AC76DFF8B866BC68D7F80C80287852
:1001A000C10604F00C0408F0030848D524B10C2C57
:1001B00008BFB8F1010F2CD13868810702D5A869B2
:1001C00000284CD0396808074EBF396871680909A2
:1001D000286A01F0F001814206D200F0F6FA002808
:1001E0003DD100F0E5F907E000F0E2F924B9286A12
:1001F00000F0EBFA002832D100F08AFABA6800F079
:1002000076FADFF84406006800F03AFB010016D0E9
:10021000C8E1A86928B3396841F00101396000F0EC
:1002200051FB81463868810707D400F04BFBA0EBF7
:1002300009000328F6D30320B4E100F0B9F92878C7
:10024000C10755D5082C04D00C2C08BFB8F1030FFA
:1002500017D1386881034BD56868002848D1012040
:10026000A0E138684008400000F0B7F981463868DE
:100270008107E4D500F026FBA0EB09000328F6D3A4
:10028000D9E76868B0F5803F04D1386840F4803021
:10029000386011E0B0F5A02F386806D140F4802016
:1002A0003860396841F4803105E020F480303860EE
:1002B000396821F480213960686860B100F002FB80
:1002C00081463868810313D400F0FCFAA0EB0900E2
:1002D0006528F6D3AFE700F0F5FA81463868810368
:1002E00006D500F0EFFAA0EB09006528F6D3A2E7E7
:1002F0002878810713D5042C04D00C2C08BFB8F142
:10030000020F22D13868410502D5E8680028A6D03E
:100310007868296920F0F85040EA01607860287810
:10032000010742D56869002870682FD040F00100AD
:10033000706000F0C7FA80467068810735D400F01D
:10034000C1FA00F031F9F7D375E7E86878B1396898
:1003500041F48071396000F0B5FA80463868410593
:10036000D6D400F0AFFA00F01FF9F7D363E738688E
:1003700020F4807000F031F9804638684105CED510
:1003800000F0A0FA00F010F9F7D354E7400840005D
:10039000706000F097FA80467068810705D500F01C
:1003A00091FA00F001F9F7D345E72878410767D5BE
:1003B000B86DC1004FF000080AD4B86D40F080500D
:1003C000B8654FF00108B86D00F0805000900098BB
:1003D000DFF88094D9F80000C10513D4D9F80000E3
:1003E00040F48070C9F8000000F06CFA8246D9F839
:1003F0000000C10506D400F065FAA0EB0A0003284E
:10040000F5D318E7A868012804D1306840F001004E
:10041000306010E00528306806D140F004003060FC
:10042000316841F0010105E040084000306031686A
:1004300021F004013160A86841F2893960B100F00F
:1004400041FA82463068810713D400F03BFAA0EBF2
:100450000A004845F6D3EEE600F034FA82463068EA
:10046000810706D500F02EFAA0EB0A004845F6D326
:10047000E1E6B8F1000F03D0B86D20F08050B86508
:10048000A86A002800F08D80022876D1F868EA6A10
:1004900000F00301914201BF00F0700110312A6B9E
:1004A000B1EB021F20D16A6B00F4FE41B1EB022FC9
:1004B0001AD1A96B07290CBF0021012100F40032D9
:1004C0008A4211D1EA6B00F4C00101F50011520813
:1004D000B1EB425F08D1296C00F0C06000F1007000
:1004E0004908B0EB416F44D00C2C47D0386841012B
:1004F00001D43868C1003FF5B2AE00F06BF8044695
:100500003868810105D500F0DDF9001B0328F7D319
:1005100091E6F868DFF84013EA6A0840296B104357
:10052000491E40EA0110EA6B696B520840EA01205B
:10053000296C521E490840EA4250491E40EA416077
:10054000A96B090940EA4140F860386840F08070C2
:100550003860F96841F08071F96000F0B3F9044641
:10056000386881011DD400F0ADF9001B0328F7D3D2
:1005700061E63868810114D4E7E70C2C3FF46FAED4
:1005800000F028F804463868810105D500F09AF992
:10059000001B0328F7D34EE6F868DFF8C0120840C6
:1005A000F8600020BDE8F687A0EB0800032870473C
:1005B000386840F0080038603968286A21F0F00196
:1005C000014339607968E86921F47F4141EA0021FB
:1005D00079607047386820F08070386000F072B938
:1005E0002DE9F0410400884655D0DFF87462306888
:1005F00000F00700404502D200F06FF84BD12078A0
:10060000DFF83C52810706D5A068A96801F0F00127
:10061000814200F076F82078C1072AD56068032867
:1006200002D129688A0108E0022802D129688A03D8
:1006300003E00028296802D18A0702D42BE04A058A
:1006400029D5A968890840EA8100A86000F03AF934
:100650000746A868616800F00C00B0EB810F08D075
:1006600000F030F9C01B41F289318842F1D30320F8
:1006700031E02078810706D5A068A96801F0F00173
:10068000884200F03EF8306800F00700804504D250
:1006900000F023F801D001201DE02078410705D5A6
:1006A000AA68E06822F4E0620243AA6021780807A1
:1006B00006D5A968206921F4605141EAC001A9600A
:1006C00000F026F8AA6800F012F8BDE8F0415E4894
:1006D000006800F0D5B8BDE8F0813168C90848EA83
:1006E000C1013160306800F00700404570475D4946
:1006F000C2F30312895C534A01F01F01C840106025
:10070000704704D2A96821F0F0010843A86070473F
:1007100070B54B4A554B9068D6680025002110F003
:100720000C0006F00306524C03D00C2812D1012E07
:100730001AD115682E0704D4444D2E68C6F303253C
:1007400002E01568C5F303154A4E56F8255048B91E
:10075000294624E0042808BF214620D008281ED1BD
:1007600019461CE00C281AD1D06800F003000228BA
:1007700003D0032808BF1D4600E02546D168D06895
:10078000D268C0F306204543C1F30210C2F34161B1
:10079000401C491CB5FBF0F04900B0FBF1F10846E4
:1007A00070BD2848304A006813683349C3F30222F9
:1007B00006E024482C4A006813682F49C3F3C2227C
:1007C000895C01F01F01C84070477CB52B4E05467F
:1007D00030680024C10002D500F07AF80EE03068DD
:1007E00040F080503060316801F0805100910098F5
:1007F00000F06EF8316821F080513160B0F5007F73
:1008000004D1802D0CD9A12D09D304E0802D88BFFF
:10081000032405D801D1022402E0702D00D1012467
:100820000F480168C90844EAC1010160006800F08E
:100830000700A04201D0012076BD002076BD000057
:1008400000100240240400202004002094100240E4
:1008500090100240007000408C809DF9FCFFEEFE7D
:10086000002002404C3500080810024000127A00B7
:100870000024F400A0340008F435000858100240A9
:1008800070B50E4E044630780025A0B14FF47A7151
:100890000B4AB1FBF0F11068B0FBF1F000F08EF8FC
:1008A00048B9102C07D2002221464FF0FF3000F04B
:1008B00067F8B46000E00125284670BD18040020E8
:1008C0002404002001484068704700BF180400203D
:1008D000DFF86C00006800F4C060704710B5DFF806
:1008E0006010B0F5007F086800F4C0601DD1B0F55D
:1008F000007F22D00A68DFF84C30012060F34A22E2
:100900000A6032201C68DFF840204443B4FBF2F058
:10091000401C00E0401E4A69530501D50028F9D16A
:100920004869410509D5032010BDB0F5806F04D09A
:100930000A68022060F34A220A60002010BD00000D
:10094000007000402404002040420F000901020012
:1009500002D4234881547047224B02F00F021A44FC
:1009600002F8041C7047204B19684FF6FF02000282
:10097000114000F4E06008431C49084318607047C8
:1009800070B5194B1C68C4F302230124C3F1070599
:10099000052D2EBF0F2504FA05F56D1E1E1D072E11
:1009A00034BF0023DB1E2940994004FA03F3BDE85D
:1009B00070405B1E1A401143C8E70000401EB0F1B2
:1009C000807F01D30120704709490A4A486000230B
:1009D000F02010708B600720086000207047000036
:1009E00000E400E018ED00E00CED00E00000FA0586
:1009F00010E000E023ED00E038B5040001D1012053
:100A000032BD04F14005687820B9002129702046E4
:100A100000F0B6FA00F041F86068216820F07060DC
:100A200008612068816821F400418160E068012844
:100A3000A0680CBF40F4004040F404402168886086
:100A4000E068022803D120684FF40061416020680B
:100A5000416841F0007141F4004141602068C16883
:100A600021F40041C16060692169A26901432068E5
:100A700041EA0221C160206AE169226801431160F4
:100A80002068016841F001010160002068602021B8
:100A9000697020630021A97032BD2420687020682D
:100AA000016849084900016070472DE9F84300F0EA
:100AB0009AF83ED1217801293BD001202070FFF720
:100AC00001FF00F0C4F8002831D1212000F094F893
:100AD000DFF8D001B1F5807F28BF358506D2728D51
:100AE000328500F07BF803E03585002000F071F8D6
:100AF00000F0A1F800F067F814D000F008F9002821
:100B000015D100F089F80028F4D089B20029F1D17C
:100B100000F095F858B900F07BF8E5D2728D328577
:100B20000020DEE700F01BF900F09BF802D0012066
:100B300000E00220BDE8F2832DE9F84300F053F80D
:100B40003ED1217801293BD001202070FFF7BAFE69
:100B500000F07DF8002831D1222000F04DF8DFF8B8
:100B60004801B1F5807F28BF358506D2728D328568
:100B700000F034F803E03585002000F02AF800F09A
:100B80005AF800F020F814D000F007F9002815D129
:100B900000F079F80028F4D089B20029F1D100F0F2
:100BA0004EF858B900F034F8E5D2728D3285002045
:100BB000DEE700F0D4F800F054F802D0012000E0A5
:100BC0000220BDE8F283708D00284A46394630463F
:100BD000704700904FF08073FF22704700904FF0F5
:100BE0000073D2B27047064606F14004884660782A
:100BF000202815461F46704760701021A170002004
:100C00006060756277857063FF25089F718D7047FE
:100C1000708DB0F5807F7047706A3268017891629C
:100C2000706A411C7162708D411E7185308D411E4C
:100C30003185708D70474146304600F074B9CDF86B
:100C400000903B4600228021304600F03FB88146AC
:100C5000CDF80090192301224FF40041304600F0F6
:100C600035B801000DD132682020D0613268DFF83C
:100C70003C00536803405360202262700020A07043
:100C80002070080070473068416A706A0170716AAC
:100C9000308D4A1C411E72623185708D421E7285F4
:100CA000708D7047002000800024008000E800FE66
:100CB000006881698A0744BF002181628169CA078F
:100CC00003D4816941F00101816170472DE9F04150
:100CD000069F05460E4690461C46286881693140AD
:100CE000B1420CBF0120002040450DD114F1010F8D
:100CF000F3D0FFF7E7FDC01B844201D3002CECD1F9
:100D000000F021F8012000E00020BDE8F08170B57E
:100D100005460C46164628688169880711D400F0FC
:100D200038F808B1012070BD14F1010FF3D0FFF7BE
:100D3000C9FD801B844201D3002CECD100F003F8E4
:100D4000F0E7002070BD05F140002022416841F02D
:100D5000200141604270002181700170704770B5C0
:100D600005460C4616462868816988060FD400F0AF
:100D700010F838B9FFF7A6FD801B844204D3002C7D
:100D8000F1D101E0012070BDFFF7DDFFFAE700209F
:100D900070BD32462146284644E070B505460C46F3
:100DA00016462868816948073AD4FFF7F2FF002801
:100DB00034D12A689069810607D4FFF783FD801B30
:100DC000844221D3002CECD11EE09069410701D56B
:100DD000288D28BB9069C30605F1400104D5102079
:100DE000D06104224A6001E0002048602022286887
:100DF000C2612A68554853680340536020224A70F4
:100E000000208870087009E005F140002022416848
:100E100041F020014160427000210170012070BD4D
:100E2000002070BD2DE9F84307468946386881697E
:100E300000240025C906904607F140063ED5102241
:100E4000C261386881698A0633D4210031D119F131
:100E5000010FF6D0FFF736FDA0EB0800814502D365
:100E6000B9F1000FEDD138684168B27883691B048D
:100E70000AD5490408D4202A06D0416841F48041AB
:100E80004160FFF71FFD8046386881698806D8D425
:100E9000FFF718FDA0EB08001A28F5D3706840F0A2
:100EA00020007060202171700020B070307001242B
:100EB000EAE70CB92021C161042501243868816961
:100EC000CA0505D54FF4807345F00105C3610124BF
:100ED000480506D538684FF4806245F00805C261C0
:100EE0000124880507D538684FF4007145F00205E4
:100EF000C161012401E020000DD03846FFF7D8FE83
:100F0000396800F00BF8202071680D43756070702F
:100F10000021B17031702046BDE8F2830B484A6869
:100F200002404A60704770B50068049C4568084EEE
:100F3000C1F3090141EA0241194346EA54562143EB
:100F4000B54321F000412943416070BD00E800FE37
:100F5000FF63FF035C4881B0816841F0010181605B
:100F6000816801F0010100910099026842F080520D
:100F70000260006800F080500090009801B0704757
:100F800010B5A8B000F058F800F090F820684F496C
:100F9000884223D14022002106921A9106A800F02F
:100FA0009FF808B100F038FC494C206840F002007E
:100FB00020601222216801F0020100914FF440717B
:100FC00000F079F8042100F06CF8E06840F40010BB
:100FD000E060E06800F400100090009828B010BDB8
:100FE00010B586B000F028F821683B48814221D135
:100FF0003748416941F480514161416901F48051B0
:1010000000910099026842F001020260E02100684C
:1010100000F001000090022200980191029200214C
:101020000391032205210591049201A94FF09040FC
:1010300000F0F4FB06B010BD04461422002101A804
:1010400000F0F2BC10B5A8B0FFF7F6FF00F02EF8E4
:1010500020682249884222D101220021069214915F
:1010600006A800F03DF808B100F0D6FB1848416929
:1010700041F480414161416901F48041009100994E
:10108000026842F002020260C021006800F0020023
:101090000090022200F00FF8072100F002F828B0BB
:1010A00010BD0591049201A900F0B8BB882200216F
:1010B00006A800F0B9BC00980648019102920021F0
:1010C0000391032270470000581002400054004072
:1010D0004C1002400004004800300140003801403C
:1010E0002DE9FC47064600243068DFF8147401053A
:1010F000A04621D5706E70B1B0F5800F17D0B0F555
:10110000000F03D0B0F5400F09D013E03A6842F465
:1011100080323A6004E0002100F07CF9044654B9C2
:10112000F96F706E21F440010143F96704E000F0AB
:101130006BF9F3E70124A0463068C10421D5B06EF5
:10114000A8B1B0F1807F17D0B0F1007F03D0B0F12B
:10115000407F04D013E0396841F4803139607CB9B4
:10116000F96FB06E21F040710143F96709E0002189
:1011700000F050F90446F2E700F046F9FAE70124DE
:10118000A046306881032BD5F86CC1004FF00009F0
:101190000AD4F86C40F08050F8644FF00109F86C04
:1011A00000F0805000900098DFF82854286840F440
:1011B00080702860FFF786FB82462868C10500F131
:1011C0008280FFF77FFBA0EB0A000328F5D30324FE
:1011D000A046B9F1000F03D0F86C20F08050F864FD
:1011E0003078C10705D5FA6FB06B920840EA8202E9
:1011F000FA673178880705D5F96FF06B21F00C019B
:101200000143F9673178480705D5F96F306C21F053
:1012100030010143F9673178080705D5F96F706C23
:1012200021F0C0010143F9673178C80605D5F96F8F
:10123000B06C21F440710143F9673178880605D517
:10124000F96FF06C21F440610143F967316888055A
:1012500005D5F96FF06D21F440210143F96731683C
:10126000480505D5F96F306E21F440110143F96747
:101270003178480605D5F96F306D21F440510143AE
:10128000F9673178080605D5F96F706D21F4404192
:101290000143F9673168C80505D5F96FB06D21F4D0
:1012A00040310143F9673168880446D5F96FF06E23
:1012B00021F040610143F967F06EB0F1006F34D165
:1012C00000F09DF839E0002C82D1DFF8444320681B
:1012D00010F440701CBFD6F8841088420BD02068F0
:1012E000216841F48031216020F44070226822F4AA
:1012F000803222602060C0070FD5FFF7E3FA054671
:101300002068810709D4FFF7DDFA401B41F28931DB
:101310008842F5D34FF003085BE72168D6F88400D4
:1013200021F440710143216053E7B0F1806F04D193
:1013300000F06FF8010018BF80463068010314D533
:10134000FA6F306F22F040620243FA67306FB0F1FB
:10135000006F02D100F053F807E0B0F1806F04D1C4
:1013600000F057F8010018BF80463068410314D5DB
:10137000FA6F706F22F040620243FA67706FB0F14B
:10138000006F02D100F03BF807E0B0F1806F04D1AC
:1013900000F03FF8010018BF80463068410418D5BE
:1013A000FA6FB06F22F040520243FA67B06FB0F1AB
:1013B000805F03D1022100F02DF807E0B0F1005F5B
:1013C00007D1022106F1200000F09CF8010018BFAF
:1013D00080463068010405D5FA6FF06F22F0804234
:1013E0000243FA673168C80306D5F96FD6F8800062
:1013F00021F000410143F9674046BDE8F6873868AF
:1014000040F4801038607047002106F1200000F0A1
:1014100079B80121301DFFE72DE9F04105467D4FE8
:1014200028680C46F968002611F0030F0DD0F96802
:1014300001F00301814231D180B3F8686968C0F3DB
:101440000210401C88420ED028E0012804D025D389
:1014500003281DD018D321E03A6891071ED5FA68F9
:10146000696800F0C9F8386820F0806000F0CCF8B6
:1014700080463868010113D5FFF724FAA0EB080075
:101480000328F6D3032637E039684A05E7D405E098
:1014900039688A03E3D439684A03E0D401262BE093
:1014A000A9682CB93A695C48EB6800F095F80FE040
:1014B000012C3A6909D12B69584802405B0842EA7D
:1014C00001215B1E41EA435102E06B6900F08BF899
:1014D0003961386840F0806000F096F8044638685A
:1014E000010105D4FFF7EEF9001B0328F7D3C9E784
:1014F0003869A969084338613046BDE8F0810000C9
:101500000C1002402DE9F0410646424F30680C466F
:10151000F968002511F0030F0DD0F96801F00301FF
:10152000814231D180B3F8687168C0F30210401C69
:1015300088420ED028E0012804D025D303281DD0EE
:1015400018D321E03A6891071ED5FA68716800F057
:1015500053F8386820F0805000F056F8804638681C
:10156000810013D5FFF7AEF9A0EB08000328F6D3EE
:1015700003252BE039684A05E7D405E039688A037A
:10158000E3D439684A03E0D401251FE0B1687A69E1
:10159000002C04D12048F36800F01EF802E0336903
:1015A00000F021F87961386840F0805000F02CF8A4
:1015B00004463868810005D4FFF784F9001B03282E
:1015C000F7D3D5E778697169084378612846BDE8A3
:1015D000F081000000700040024042EA01211B0936
:1015E00041EA434170470E4802405B0842EA01214C
:1015F0005B1E41EA4361704722F073021043491EAB
:1016000040EA0110F86070473860FFF75BB90000EE
:101610009010024000100240FF80FDFFFF809FFFFE
:10162000FF80FFF938B586B000F008FA00F0B6F890
:101630001422002101A800F0F7F95148016841F097
:101640000101016048F20404026802F00102009204
:101650000099026842F0020202600022006800F075
:1016600002000090214600984FF0904000F0C5F92C
:1016700001210291002203920492019401A94FF0EA
:10168000904000F0CBF83F4C3F4840496066A1666F
:1016900004F184050020E06601216067A067E0672F
:1016A000C4F880002860216704F16400FFF7A4F902
:1016B00008B100F0B1F8002104F1640000F00CFA68
:1016C00008B100F0A9F8002104F1640000F019FA53
:1016D00008B100F0A1F82E4820604FF482714FF459
:1016E000E060E06061600720E062002208204FF4C3
:1016F00000716063A26022616261A161E2612262A5
:101700006262A2622263204600F026FA08B100F06D
:1017100083F81A481F4901604FF4E13200230C217D
:1017200042608360C360036141618361C36103629E
:10173000436200F05DFC08B100F06EF804F1640053
:1017400000F0A2FE204600F007FF1348686300681F
:101750008047FFF7B7F80446686B41688847A86B75
:1017600020B16863006880470021A963FFF7AAF8E9
:10177000001B2128FAD3FFF7A5F8EAE7E832012099
:101780004C1002402832012000540040EC9C901084
:1017900000300140003801401004002080B596B0B0
:1017A0004422002105A800F03FF9142200216846D8
:1017B00000F03AF94FF40070FFF790F808B100F02C
:1017C0002BF801210B91002260210D910C92012137
:1017D00010911191022228210F9212911020059050
:1017E0000722022113921491159105A8FEF7CCFC53
:1017F00008B100F011F80F200321009001910022A0
:1018000002920392049204216846FEF7E9FE08B1B1
:1018100000F002F817B000BD72B6FEE72DE9F84FF0
:101820004FF00009774A784B4FF00F0805460E46F7
:1018300038E0764CA54214BF072406248C40744936
:101840003C4341F82C40C143D2F808C0746801EA17
:101850000C0CE40248BF40EA0C0CC2F808C0D2F8F5
:101860000CC0746801EA0C0CA40248BF40EA0C0CDE
:10187000C2F80CC0D2F804C0746801EA0C0CA403CE
:1018800048BF40EA0C0CC2F804C0D2F800C001EA1C
:101890000C0C7168C90348BF40EA0C0CC2F800C0C8
:1018A00009F10109316831FA09F000F0A48001243E
:1018B00004FA09F414EA0100F2D04FEA490C0321BA
:1018C00001FA0CF16FEA010E7168E44301F00307BD
:1018D000012F1CBF01F00301022910D1A968F7688C
:1018E0000EEA010107FA0CF73943A96069687768C5
:1018F000C7F30017214007FA09F739436960716897
:1019000001F00307032F07D1EF6AC1F3C0013C4088
:1019100001FA09F10C43EC624FEA8901347904F0D1
:101920000304032C1FD0EC68B7680EEA040407FA1E
:101930000CF73C43EC60347904F00304022C12D120
:101940004FEAD90405EB840401F01C07D4F820A069
:1019500008FA07FB2AEA0B0AD6F810B00BFA07F7C9
:1019600047EA0A0727622C680EEA0407347904F074
:10197000030404FA0CF444EA070CC5F800C07468C8
:1019800014F4403F8CD0D3F800C0214C4CF0010C33
:10199000C3F800C04FEA990CD3F800E00EF0010E36
:1019A000CDF800E001F00C01DDF800E054F82C4027
:1019B00008FA01F724EA0707B5F1904F08BF0024A1
:1019C00018D0144CA54208BF012413D0124CA542D4
:1019D00008BF02240ED0114CA54208BF032409D031
:1019E0000F4CA54208BF042404D00E4CA5427FF43E
:1019F00020AF052422E7BDE8F18F0AB1816170476D
:101A000081627047000401406010024000180048E5
:101A1000080001400004004800080048000C00488D
:101A2000001000480014004810B5044610460A464D
:101A30000146204600F070FE204610BD032010B580
:101A4000FEF791FF0F20FEF71BFF0024002814BFB4
:101A50000124FFF77FFA204610BDF0B4024610685B
:101A600095681318506803EB5004C00748BF4D44F5
:101A7000A3422DD013F8016B16F0030004BF13F836
:101A8000010BC01C31090F2907D113F8011B0F31BD
:101A900003E013F8017B05F8017B401EF9D1002912
:101AA000E6D013F8010BC6F38106032E08BF13F826
:101AB000016B00EB0620404228440026B71E8F42EF
:101AC0001EBF10F8017B05F8017B761CF6D1CFE72D
:101AD000F0BC02F10C00704730B500F140025378C1
:101AE000202B0CD11478012C09D000F01DF824F41F
:101AF00080541C6003681D682943196020E002209F
:101B000030BD30B500F140025378202B0AD1147853
:101B1000012C07D000F008F824F4706444EA012492
:101B20001C600DE0022030BD01231370242454708A
:101B300003681D686D086D001D6003681C687047B0
:101B40000068016841F0010101602020507000210F
:101B50001170002030BD000038B5040001D1012013
:101B600032BD606A30B96068B0F5827F05D000216F
:101B7000E16102E00020206160610020A06204F1C8
:101B80005C05687820B9002129702046FFF728FA03
:101B90000220687000F000FAE168B1F5E06F04D946
:101BA0000020B1F5706F03D104E04FF4805001D0F4
:101BB0000021A1626168A268237C01F4827102F4B1
:101BC00004421143227D03F002031943A36902F08A
:101BD00001021143227F03F40073194394F820306B
:101BE00002F038021143A26A03F08003194323680C
:101BF00002F4005211431960A16994F8242094F86A
:101C00003430090C01F0040102F010021143E268C3
:101C100003F00803194302F470621143084321687A
:101C20004860002068600121697032BD2DE9F843E9
:101C3000054605F144060027307E0C46914698463D
:101C4000012808BF022000F0A38001203076FEF7B3
:101C500039FE717E012918BF02274FD1002C18BF11
:101C6000B9F1000F00F08E80032171760023F3613B
:101C7000AC63A5F83C90A5F83E902B64338000241B
:101C80007480F360B360A968B1F5004F09D1296889
:101C90000B6823F040030B6029680C6844F480440F
:101CA0000C6029680B685C0603D40B6843F04003A2
:101CB0000B6040F20172EB6869689342444621D39D
:101CC000002918BFB9F1010F00F071F8804604E057
:101CD000A96B0A88C26000F063F8E88F00283DD045
:101CE000286881688A07F3D4FEF7ECFDA0EB0800B2
:101CF000A04204D314F1010FEFD0032743E0002CDE
:101D0000EBD1FAE7002918BFB9F1010F00F05BF839
:101D1000804607E00988C160A86B811CA963E88F31
:101D2000811EE987E88FC8B1286881688A0708D5CD
:101D3000A96BEA8F022AEDD20978017300F02AF824
:101D4000EFE7FEF7BFFDA0EB0800A04203D314F1BC
:101D5000010FE7D0D1E7002CE4D1CEE7424621467F
:101D6000284600F01FF908B12020F061A86838B9B2
:101D7000002100912968CA68009289680091009A40
:101D8000F06900B1012701207076002131763846D4
:101D9000BDE8F283A86B411CA963E88F411E704720
:101DA000A86B811CA963E88F411EE987704709D1A0
:101DB000A96B2B680A88DA60A96B8A1CAA63E98F71
:101DC0004A1EEA87704715D1A96B2A68EB8F022B50
:101DD00008D30988D160AA6B911CA963EA8F911E70
:101DE000E98770470B781373A96B4A1CAA63E98FC4
:101DF0004A1EEA8770472DE9F843089C05460E46BF
:101E000090461F46FEF75EFD381A2418FEF75AFD6D
:101E10008146DFF8D80101684901090D614300914D
:101E200005E0009800B900240098401E0090286842
:101E300081683140B1420CBF01200020404532D0C2
:101E400017F1010FF3D0FEF73DFDA0EB0900A04212
:101E500001D2002CE5D12868416821F0E001416001
:101E60006868B0F5827F0BD1A868B0F5004F18BF45
:101E7000B0F5806F04D12868016821F0400101604D
:101E8000A86AB0F5005F09D12868016821F4005103
:101E900001602868026842F40052026005F15C00AB
:101EA00000F06EF800E00020BDE8F2832DE9FC4769
:101EB00006460A9D00208DF800000F4614469846FD
:101EC000FEF700FDA8EB00002D18FEF7FBFC814695
:101ED0003068DFF818110A6800F10C0A2320424329
:101EE000120D6A43019205E0019800B9002501989E
:101EF000401E0190306881683940A1423DD0B7F55D
:101F0000C06F08BF002C05D19AF800008DF80000C2
:101F10009DF8001018F1010FECD0FEF7D3FCA0EBF8
:101F20000900A84201D2002DDED13068416821F0BD
:101F3000E00141607068B0F5827F0BD1B068B0F508
:101F4000004F18BFB0F5806F04D13068016821F0F0
:101F500040010160B06AB0F5005F09D130680168E6
:101F600021F4005101603068026842F400520260BE
:101F700006F15C0000F004F800E00020BDE8F68700
:101F800001214170002202700320704700962B4609
:101F90000022802120462EE72068016821F04001C0
:101FA000016070477CB50D461646044600962B46E8
:101FB00000224FF4C051FFF779FF38B9FFF7E6FF71
:101FC00020B900962B4600F00CF808B100F001F89B
:101FD00076BD206E40F02000206603207047009000
:101FE000642300224FF4C06120465FE724040020F0
:101FF00038B5040009D004F17405696809B900F026
:102000001EF800F021F8012801D1012032BD606ADC
:1020100008B100F02AF800F00AF821F02A01FFE7E1
:10202000816000F01BF8BDE8324000F0AEB92068D6
:10203000416821F490414160206881687047002028
:1020400028702046FEF7FEBF2421696020680268E0
:10205000520852000260204600F018B8206801685B
:1020600041F00101016020467047204600F02AB986
:10207000286800F1080151E8001F490800F1080331
:10208000490043E80010002870470000F8B50446F6
:10209000834822681368A168034020690B43616983
:1020A0000343E0690B430343136000255168E06874
:1020B00021F4405101435160A36978498A421CBF11
:1020C000206A03439668774F774826F43066334397
:1020D0009360BA424FF40043744E32D1366806F032
:1020E0000306032E3AD8DFE806F0026E5F80012770
:1020F000E169B1F5004F4FF6F07640F0A6805FB190
:10210000012F00F09A80022F0AD0042F00F098804F
:10211000082F00F09880BAE0FEF743FB00280FD0AC
:1021200061684A0802EB4002B2FBF1F0A0F1100135
:10213000B142F0D20640C0F3420006432068C660B8
:10214000A6E05B4FBA4221D1366816F00C065DD08E
:10215000042E38D0082E27D00C2E46D010278A42C5
:10216000C6D137B1022F08D0042F51D0082F52D03A
:102170008DE0FEF716FB0028E2D0626802EB420118
:10218000884202D31303834247D280E0494FBA42C8
:102190000CD1366816F0300638D0102E13D0202E11
:1021A00002D0302E21D0D9E70227D8E7424FBA42D9
:1021B0000BD1366816F0C00628D0402E03D0802EF2
:1021C000F2D0C02EEEE70427C9E73C4FBA420ED149
:1021D000366816F4407619D0B6F5807FF3D0B6F5A0
:1021E000007FE1D0B6F5407FB8D10827B7E78A4233
:1021F000B4D1366816F4406608D0B6F5806FE2D0E8
:10220000B6F5006FD0D0B6F5406FCBE70027A6E754
:10221000FEF77EFAAFE71846AFE7010E560816EB59
:1022200000206941002300F0ABFAA0F54071244A78
:1022300091422CD22168C8602AE0FEF7BAFA6DE715
:10224000FEF766FA6AE718466AE747B1012F16D02B
:10225000022F07D0042F15D0082F16D017E0FEF755
:10226000A0FAA8B1616800EB5100B0FBF1F0A0F159
:102270001001B1420BD2226880B2D06008E0FEF7B4
:1022800098FAEEE7FEF744FAEBE71846EAE701258D
:1022900000206066A0662846F2BD00000080004075
:1022A000F369FFEF003801400024F4008810024079
:1022B0000044004000480040004C004000500040F6
:1022C00000FD0F0090F82410CA0706D50268536875
:1022D000816A23F400330B43536090F824108A077B
:1022E00006D502685368C16A23F480330B435360F8
:1022F00090F824104A0706D502685368016B23F44E
:1023000080230B43536090F824100A0706D5026817
:102310005368416B23F400430B43536090F824103F
:10232000CA0606D502689368816B23F480530B4379
:10233000936090F824108A0606D502689368C16BF2
:1023400023F400530B43936090F824104A0610D5F1
:1023500002685368016C23F480130B435360036CD1
:10236000B3F5801F05D15368416C23F4C0030B43C0
:10237000536090F824100A0606D501684A68806CFC
:1023800022F4002202434A607047F8B5044604F183
:1023900074050020E8606FF07E47FEF793FA06466A
:1023A000206801680A0708D50097334600224FF4D9
:1023B0000011204600F018F860B9206801684A074B
:1023C0000AD50097334600224FF48001204600F0E2
:1023D0000BF808B10320F2BD202068602021A9601D
:1023E000002020662870F2BD2DE9F041069C0546CC
:1023F0000E4690461F462868C1693140B1420CBF65
:1024000001200020404529D114F1010FF3D0FEF73F
:1024100059FAC01B844200D34CB900F029F8FFF7E9
:1024200027FEFCD100F01DF80021017014E028689F
:1024300001684A07DFD5C1690805DCD52A684FF471
:102440000061116200F014F8FFF712FEFCD100F0F9
:1024500008F8C16000220270032000E00020BDE8FF
:10246000F08105F1740020214160202282607047D4
:10247000286850E8001F024621F4D07142E800109D
:102480000028F5D17047000080B52E490860A820CB
:1024900000F041F8112802D04FF0FF3002BD0020BB
:1024A00002BD80B5022000F036F800B1012002BD67
:1024B00070B50446042000F02EF82080052000F0BE
:1024C0002AF80546062000F026F840EA0526668030
:1024D000208800F0D9F900221B4B00F0E3F900221C
:1024E0001A4B00F0B5FA00F0D7FB2080304600F020
:1024F000CBF90022164B00F0D5F90022154B00F065
:10250000A7FA00F0C9FB6080002070BD206801AA16
:102510007021FEF7CABA1CB58DF804004FF0FF30E9
:10252000084C00900123FFF7F1FF4FF0FF310091BD
:102530000123206801AA7021FEF7FEFA9DF804002D
:1025400016BD00003C34012000E06D4000A06D404D
:1025500000F0734000C0734000F0BABBF0B5059CBA
:10256000674D0DE0F02707FB06077F004FEA142CAC
:1025700005F807C02F44761C7C70B342F2D2401C91
:10258000814228BF1646F8D2F0BD2DE9F04F8846AB
:10259000DFF86C91DFF878A101E0D846401C0178A3
:1025A00051B3C446A8F1080B1FE001780AEBC1043F
:1025B000AEEB02050127665DA8EB0C018F403E42A1
:1025C00008D0F02101FB0EC11C0A09F8114009EBEB
:1025D00041014B700EF1010E02F108018E4502D24D
:1025E000BEF1A00FE1DBACF1010CE345D5D2BCF1AB
:1025F000000FD2D49646EFE7BDE8F08F2DE9F04FFB
:1026000004461D46DFF8F880DFF8049101E06146DA
:10261000641C2078A0B38E46A1F1400C28E0F01A8B
:1026200027784FEAA00B00EB5B7009EBC707C010DF
:10263000A1EB0E02385C4FEAA20A02EB5A720127A4
:10264000D21007FA02F2104208D0F02000FB06E098
:102650002F0A08F8107008EB40004570761C03F153
:1026600040008642B8BFA02ED9DB1A46AEF1010E5B
:10267000F445CCDABEF1000FC9D416461346EEE796
:10268000BDE8F08F00211E4A030A53545318891CD9
:10269000B1F5963F5870F7D37047000070B5054606
:1026A0000C4610462DED028B00F0EEF89FED158BD9
:1026B00053EC182B00F0F6F800F0EEFA0646204630
:1026C00000F0E2F8114A134B00F0ECF800F0E4FAE5
:1026D0004401284600F0D8F853EC182B00F0E2F83B
:1026E00000F0DAFA44EAC6240443BDEC028BA0B23F
:1026F00070BD034800F05ABB014800F061BB000008
:10270000300400201F1F1F1F1F1FBF3FA09F9F9F40
:10271000100000209F9FCF3F62F30F2262F31F4201
:10272000401810F0030308D0C91A1FD3DB0748BFB5
:1027300000F8012D28BF20F8022D130030B41446F4
:102740001546103928BF20E93C00FAD8490728BFB0
:1027500020E90C0048BF40F8042D890028BF20F86C
:10276000022D48BF00F8012D30BC7047C91818BFB2
:1027700000F8012DCB0728BF00F8012D704700009D
:10278000D3BBD9B1B2F5803F5BD2022A1ED98C46A9
:10279000B1FBF2F102FB11C31B0443EA1043B3FB8C
:1027A000F2FC02FB1C3380B240EA0343B3FBF2F0BD
:1027B00002FB103240EA0C4000237047022A05D980
:1027C0008446B0FBF2F002FB10C270474AB105D15B
:1027D00000F0010249085FEA300070470022002340
:1027E000704700F073BB0B0002000021002070470F
:1027F000F7D3002200237047904271EB030CF2D311
:1028000070B5B1FA81F4B3FA83F52C1BA340C4F17F
:10281000200532FA05F63343A2405FF00046E64059
:1028200002E05B085FEA3202841A71EB030524BF01
:10283000204629467641F4D302000B0030000021E7
:1028400070BD70B5B1FA81F4B2FA82F5C4F120041A
:102850006419B4F12006DAD3B2405FF00044F440CA
:10286000002502E052085FEA3303C61A71EB020E3C
:1028700024BF3046714664416D41F3D302000B0022
:102880002000290070BD000050B1B0FA80F18840EE
:10289000C91CC1F58461090501EBD02140057047D1
:1028A0000146704730B540F2FF7C1CEA11541DBF51
:1028B0001CEA1355644565453FE0641981EA030C41
:1028C0006FF35F530CF0004C43F48013C90241F0E6
:1028D000004141EA505EC5021100A5FB020200283A
:1028E0004FF00000EEFB01204FF00001E3FB05215B
:1028F00018BF42F00102401800214941E3FB0E01DC
:10290000A4F580640D0302D292184041494154F16C
:10291000010470DD450872F1004250F1000051EBF6
:102920000451A1F5801102D441EA0C0130BD40F2FE
:10293000FF7E4CEA0E51002030BD0CEA1355644571
:1029400018BF654581EA030C0CF0004C41D050EAF9
:10295000410E1CBF52EA430E02E06146002030BD2A
:1029600024422C441BD15FEA050EF6D0090302BFB6
:1029700001460020AEF1140EB1FA81F5AEEB05046C
:1029800001FA05FE0C35C5F1200100FA05F5C84035
:102990004EEA000E6FF35F5343F480139CE733F06D
:1029A0000043B3FA83F504BFB2FA82FE75440B3DCF
:1029B000641BB5F1200E2FBF02FA0EF3AB40C5F138
:1029C000200E22FA0EFE38BF43EA0E03AA40641C12
:1029D0007CE750EA410E14BF52EA430E6FF000014B
:1029E0004FF4001515EB430F8EBF194615EB410F41
:1029F0009DE7B4D830BDD4F10104B4F120050FDA5D
:102A0000C4F12005520828BF42F0010210FA05FE69
:102A100001FA05F57244E2BFE0402843E1400FE0CF
:102A2000352C9ADCC5F1200452EA400220FA05F266
:102A300018BF42F0010231FA05F0A1400A4300211B
:102A400072F1004250F1000051EB0C0130BD00006A
:102A5000F0B540F2FF7581EA030C0CF0004C15EA6A
:102A600011541DBF15EA1357AC42AF42E5E0BC411B
:102A7000C1F31301C3F31303801A994143F4801384
:102A800004D2641E0018494180185941C90241EA24
:102A90005051B1FBF3F603FB1611A2FB0675D7EB01
:102AA000C020A94102D2761E80185941C90241EACC
:102AB0005051B1FBF3FE03FB1E11A2FB0E75D7EBC9
:102AC000C020A94103D2AEF1010E801859418902FC
:102AD00041EA9051760546EA8E2EB1FBF3F603FBF0
:102AE0001611A2FB0675D7EB8020A94102D2761EF3
:102AF00080185941C90241EA50514EEA060EB1FB15
:102B0000F3F603FB1611A2FB0675D7EBC020A94113
:102B100002D2761E80185941C90241EA5051B1FBD8
:102B2000F3F703FB1711A2FB0735D3EBC020A94134
:102B300067F100070CBF004247F0010766F3D52795
:102B40004FEA1E31B80814F5806412DDBD0775F137
:102B5000004250EB0E5051EB045111F5801F5CBF49
:102B600041EA0C01F0BD4CF07F6141F0E0410020F2
:102B7000F0BDBD076D0840EA0E5041F48011D4F15C
:102B80000104B4F120060ADAC4F120060200E04094
:102B900001FA06F3E1401843B24015430EE0342C2D
:102BA00013DCC6F1200445EA40056D0820FA06F260
:102BB000154321FA06F0A1400D43002175F10042B2
:102BC00050F1000051EB0C01F0BD00205FEA0C0158
:102BD000F0BDCFB992185B41B3FA83F704BFB2FAE4
:102BE00082F6BF190B3FB7F120062FBF02FA06F39A
:102BF000BB40C7F1200622FA06F638BF3343BA407D
:102C00001CB1E419641E33E77F4231F00041B1FA90
:102C100081F404BFB0FA80F6A4190B3CB4F120068D
:102C20002FBF00FA06F1A140C4F1200620FA06F6F3
:102C300038BF3143A0403C1B1AE7AC421ABF05EA3B
:102C40001357AF4212E050EA41061CBF52EA430656
:102C5000BFE750EA4107304661461CBF41EA0551D3
:102C6000F0BD52EA430C08BFC143F0BD00204FF451
:102C7000001616EB410F98BF16EB430F08BF16EB7B
:102C8000410F24BFC14305E016EB430F0CBF614663
:102C90004CEA0551F0BD0000C1F30A5340F21E4258
:102CA000D31A0CDDCA0283F3070342EA505242F002
:102CB0000042DA4002EBE17282EAE17070476FEAAB
:102CC000E17203F2E13008B182F000407047000089
:102CD00080B56D4908600122042100F016F800F06B
:102CE0000EF8782000F0F4F800F03BF8002000F037
:102CF00011F8552000F012F8BDE8014052E080B50F
:102D0000012030E000224FF400414FF09040FEF7E8
:102D100074BE000011B581B0362002E011B581B05B
:102D20003A208DF8000000220421FFF7EEFF00F0AA
:102D3000B7F8554CFEF761FE206800F00CF8012250
:102D4000FFF7E1FF206800F0A5F801220421FFF75A
:102D5000DCFF002016BD4FF0FF3301226946FEF76D
:102D600065BF80B511208DF80000002204214FF0CE
:102D70009040FEF742FE00224FF400414FF0904099
:102D8000FEF73BFE404800684FF0FF3301226946E2
:102D9000FEF74CFF012204214FF09040FEF72DFE7C
:102DA000002002BD80B52920DDE70000F0B500BF9E
:102DB0003EA185B00446D1E9002303A83DA608E062
:102DC000F0B500BF3DA185B00446D1E9002303A8BA
:102DD0003CA6C0E90023D6E9007001AD0022C5E998
:102DE000007004212C208DF80000FFF78EFF00F00A
:102DF00057F8254DFEF701FE00F048F8012203A91F
:102E0000FEF714FF0122FFF77EFF00F03FF80422D7
:102E10000DF10D01FEF70AFFFFF774FF286800F0BF
:102E200039F80122FFF76FFF00F030F804220DF1AE
:102E30000501FEF7FBFEFFF765FF2868FFF78BFF34
:102E40000122FFF760FF4FF6FF7600F01FF83246D1
:102E50002146FEF7EBFE00F019F842F60142A119F7
:102E6000FEF7E4FEFFF74EFF00208DF800004FF064
:102E7000FF332868FFF771FF01220421FFF745FFA8
:102E8000002005B0F0BD00004434012028684FF058
:102E9000FF3370474FF0FF33012201A9FEF7C6BE92
:102EA00000224FF400414FF0904070472A0000008C
:102EB000EF0000002B0000013F0000002A0000008E
:102EC000EF0000002B00A0013F0000007047000051
:102ED00038B50446FDF7F6FC14F1010F054602D0A3
:102EE000044801786418FDF7EDFC401BA042FAD3BA
:102EF00031BD00BF180400202DE9F04100F07CF93D
:102F0000FFF7C0FB00F060F803464622C821B4A0DA
:102F1000FFF774FB00F058F8034646225621B1A093
:102F2000FFF76CFBFFF7E8FB00F066F9FFF7AAFB81
:102F3000FFF7DFFBAC4C2820A0600521E1608C206E
:102F400020606060002121610022FF20FFF7A6FBC6
:102F5000A0825021052020626062E161EF20A06123
:102F6000FF220020A062FF21FFF798FBA08504212B
:102F70006FF004006063A163DB24FDF7A3FC00F0A5
:102F800086F94FF00A0800260027A82197487143C8
:102F9000182201447A438D181423AB600A20E8609C
:102FA0002C60C5F8048000F02DF9A8821E3C7F1C1F
:102FB0000020072F2861E8DBDB24761C032E08F1B4
:102FC0001408E1DBBDE8F08100220021FF20FFF7BB
:102FD00065BB2DE9F84FFFF764FA0021824CC0B2BF
:102FE00090B1E16304F13000FFF762FA228EE16BE9
:102FF000608E782A04DAA02806DA6FF0070103E071
:1030000002DDA028B8BF08212068A2680818831A2A
:1030100048BF104602D4EF28C8BFEF202060A26945
:10302000606BA36BD4F81C80256A821840429844D8
:10303000571B48BFC2EB450203D4EF2A02DDC2F59D
:10304000EF726063A2614046626A02EB0805A02D40
:1030500006DD674B1046674A1A60C0F1A00007E022
:10306000B8F1000F04D5C8F100085B424046A363E5
:10307000E061E16304F11800214600F028F928B36B
:103080006168606AE269E76B091AA06BC2EB4102F2
:10309000E2614042A063216AA269A06801EBD1739A
:1030A000A2EB630200EBD0732068A0EB63019142B6
:1030B00001DA002F03DC8A4208DA002F06D5121A43
:1030C00002EB6302032092FBF0F06063A669D4F880
:1030D0001C90DFF818814FF0000B4FF0180A002504
:1030E000A82000FB0BF040440AFB05F147183946C5
:1030F00004F1180000F0EBF870B3386960BB616B45
:103100003868A3694A42984204DA002902D562630A
:10311000861C1FE0D4F820C0D7F808E0A3EB0C030E
:10312000A0EB0E00834207DA002905DD62633868F0
:10313000BE68861BB61E0DE0A06BD7F80490E1694F
:1031400040424945A063B1BFA9F10209B8684844AB
:1031500000F10209012139616D1C072DC0DB0BF163
:10316000010BBBF1020FBADDA661C4F81C9000226E
:103170000121A827002307FB02FCC4440AFB03F03B
:103180008444DCF8100000B900215B1C072BF2DB43
:10319000521C022AEEDD11B1154A16481060216456
:1031A00000F02AF8FFF76EFA04F1180000F07CF83E
:1031B000204600F079F80024002507FB04F0404485
:1031C0000AFB05F1084400F06FF86D1C072DF4DBD5
:1031D000641C022CF0DDBDE8F14FFFF78ABA000055
:1031E0003C0000003E000000F033012030300120A0
:1031F000E432012008000020002200210020FFF717
:103200004DBA0000F0B42449244AD1F880705668C1
:103210001078234C234D6FF0004320BB082005FBA2
:10322000064637461E46B7FBF6F6401E03FB1676EB
:10323000F5D10F46102005FB06469C46B6FBFCFC6C
:1032400003FB1C663E601E4657F804CB05FB0C4C86
:10325000BCFBF6F603FB16C6401E47F8046BEAD12A
:10326000CF6F0120107005FB06461C4607F01F07B4
:10327000B6FBF4F451F8270003FB146641F827600D
:10328000C1F88000566020F04040F0BC7047034910
:1032900000220A70486070476C3301202804002027
:1032A0005FF36E3C0D6619000169002900D070477C
:1032B00038B542680468858A00952146C3688568E8
:1032C0009B18641B5B1E601CFFF748F931BD30B5CD
:1032D0000B688D6804685D1BAC42A2BF8268A41AAB
:1032E000A34209DB4B68C9684268C9189142A2BF72
:1032F000C06882189A4201DA002030BD012030BD3A
:1033000080B500F027F8FFF7BDF91C49086848B1FF
:10331000FF22FF21FF20FFF7C1F903464622BE210D
:103320001AA008E000220021FF20FFF7B7F90346AA
:103330004622BE211AA0FFF728F9FFF7DAF900F0BC
:1033400009F8FFF79FF9FFF7D7F9FDF7BBFA0C492A
:10335000086001BD002200210020FFF79FB980B561
:10336000FDF7B0FA064A1168401A40F6B9339842A0
:1033700002D304490448086001BD00003034012034
:1033800040340120E43201201004002057656C6CA9
:1033900020646F6E652E20596F7520576F6E210067
:1033A00047616D65204F7665722E20596F75204CF0
:1033B0006F73740080B500F024F8FFF763F9002202
:1033C0000021FF20FFF76AF9034646225FF0B401AF
:1033D0001BA0FFF7DAF8FF22FF21FF20FFF75EF9BD
:1033E00003465A225FF0B9011AA0FFF7CEF8FFF7A3
:1033F00080F900F006F8FFF745F9BDE80140FFF756
:103400007BB9002200210020FFF748B938B5FFF74B
:1034100048F80446074DE1B251B1287840B9281D5B
:10342000FFF746F8E888A12802DB0348034901605A
:103430002C7031BD34340120E43201200000002022
:103440002D2D2D20427265616B6F7574202D2D2DF1
:1034500000000000546170206865726520746F2060
:10346000737461727400000030B4002512E050F8EB
:10347000042BD30744BF4A44521E091F042942F8B3
:10348000045BFAD213468C0744BF15809B1CC90706
:1034900048BF1D7050F8041B0029E8D130BC7047AC
:1034A000A0860100400D0300801A060000350C00C4
:1034B00040420F0080841E0000093D0000127A0087
:1034C0000024F40000366E010048E801006CDC02C4
:1034D00010B5074979441831064C7C44163404E091
:1034E0000A68081D114488470146A142F8D110BD61
:1034F0002C000000480000004EF68851CEF200017A
:10350000086840F470000860BFF34F8FBFF36F8FFF
:103510004FF00170E1EE100A704700004DFFFFFF11
:103520001830010030040020000000002FE5FFFFEC
:103530000C020000D00400000000002002480168D6
:1035400041F470010160704788ED00E00000000068
:1035500000000000010203040607080900F00DF84E
:10356000002801D0FFF7B4FFAFF300800020AFF3D5
:103570000080FEF757F800F002F80120704700F0D5
:1035800001B800000746384600F002F8FBE70000EB
:1035900080B5AFF30080024A11001820ABBEFBE7F4
:1035A000260002000548014603B4684680F30988F6
:1035B000AFF30080FFF7A0FFFFF7D0FFA5EDF5FE0A
:1035C000FEE7FEE7FEE7FEE7FEE77047704770475D
:1035D00000F000B80248416802788A1842607047DB
:1035E0001804002001488047014800473D35000885
:1035F000A53500080000000001020304FFF7FEBF2C
:10360000FFF7FEBFFFF7FEBFFFF7FEBFFFF7FEBFEE
:10361000FFF7FEBFFFF7FEBFFFF7FEBFFFF7FEBFDE
:10362000FFF7FEBFFFF7FEBFFFF7FEBFFFF7FEBFCE
:10363000FFF7FEBFFFF7FEBFFFF7FEBFFFF7FEBFBE
:10364000FFF7FEBFFFF7FEBFFFF7FEBFFFF7FEBFAE
:10365000FFF7FEBFFFF7FEBFFFF7FEBFFFF7FEBF9E
:10366000FFF7FEBFFFF7FEBFFFF7FEBFFFF7FEBF8E
:10367000FFF7FEBFFFF7FEBFFFF7FEBFFFF7FEBF7E
:10368000FFF7FEBFFFF7FEBFFFF7FEBFFFF7FEBF6E
:10369000FFF7FEBFFFF7FEBFFFF7FEBFFFF7FEBF5E
:1036A000FFF7FEBFFFF7FEBFFFF7FEBFFFF7FEBF4E
:1036B000FFF7FEBFFFF7FEBFFFF7FEBFFFF7FEBF3E
:1036C000FFF7FEBFFFF7FEBFFFF7FEBFFFF7FEBF2E
:1036D000FFF7FEBFFFF7FEBFFFF7FEBFFFF7FEBF1E
:1036E000FFF7FEBFFFF7FEBFFFF7FEBFFFF7FEBF0E
:1036F000FFF7FEBFFFF7FEBFFFF7FEBFFFF7FEBFFE
:10370000FFF7FEBFFFF7FEBFFFF7FEBFFFF7FEBFED
:10371000FFF7FEBFFFF7FEBFFFF7FEBFFFF7FEBFDD
:10372000FFF7FEBFFFF7FEBFFFF7FEBFFFF7FEBFCD
:10373000FFF7FEBFFFF7FEBFFFF7FEBF100BF92E2E
:103740000008D32F0008013300085F04F2F60001DF
:103750004408183C3C181800180036361210013680
:10376000367F02301B36000C3E031E301F0C00005B
:103770006333180C6663001C361C6E3B336E000608
:103780000603291006180C0606060C180004121869
:103790000C10050000663CFF3C661B54030C0C3FFC
:1037A0000C0C5E220C1977003F6C11191360302E3F
:1037B000100C0301003E63737B6F673E000C0E0C20
:1037C0000140063F001E33301C063308200E303304
:1037D0001E00383C36337F3078003F031F30101016
:1037E000031C06031F3308133F33411148121E0DFB
:1037F0002110110530023E30180E5C91042206663D
:1038000021A0317F1103110C217A21601002180CC4
:10381000000C8010057B7B7B031E000C4140213F88
:103820003333003F66663E66663F003C6603030333
:10383000663C001F36666666361F007F46161E16FB
:10384000467F0833060F20300373667C0033372031
:103850000233001E0C0110021E007830A7119014D4
:10386000076766361E366667000F1F100F46667FB5
:103870000063777F7F6B63630063676F7B730830E0
:10388000051C36636363361C70120650117F3002CC
:10389000333B1E3810213820031E33070E38E82230
:1038A0002D59221E681101423F0810011E0C003ED6
:1038B00010016B7F77501145114C211811831005B1
:1038C0001E007F6331184C70231E0601231E00FD6D
:1038D0002004306040001E180120011E00082D81C8
:1038E0000137FF0C1C210114011E303ED8140107C2
:1038F000060600123B1424011E33038012301711F8
:10390000182110163F2810011C3606D3120F10265E
:103910006E7210041F0706366E66B0270C00C14495
:10392000021E003000012707060132671621182405
:103930000100003301110815BF153021502528243E
:103940000100003B02520F50127810336E6660394E
:1039500079200500080C3E0C0C2CA42137426E087F
:103960001500199128016B7F7FAD436336D3323345
:103970009015E5100B190C263F00380C0C070C0CA9
:103980003800F73104210D1113B002006E3B000125
:103990001EB504041F0D34100451172210083309FA
:0439A0003D0E2114A3
:04000005080035A515
:00000001FF
